:100000000C947B020C9498020C9498020C94980225
:100010000C9498020C9409070C9498020C94980282
:100020000C9498020C9498020C9498020C949802E8
:100030000C9498020C9498020C9498020C949802D8
:100040000C94E1070C9498020C9498020C9498027A
:100050000C9434080C9487080C9498020C94980221
:100060000C9498020C9498020C9498020C949802A8
:100070000C9498020C9498020C94980207634236F0
:10008000B79BD8A71A39685618AEBAAB558C1D3C29
:10009000B7CC5763BD6DEDFD753EF6177231BF00ED
:1000A0000000803F08000000BE922449123EABAA27
:1000B000AA2ABECDCCCC4C3E00000080BEABAAAA82
:1000C000AA3E00000000BF000000803F00000000CA
:1000D00000084178D3BB4387D1133D190E3CC3BD03
:1000E0004282AD2B3E68EC8276BED98FE1A93E4CB0
:1000F00080EFFFBE01C4FF7F3F0000000000507290
:10010000657373206120627574746F6E206F722046
:100110002773272F27532720746F207374617274FD
:100120002061206E65772067616D650047414D4510
:10013000204F564552001B5B324A001B5B3F323555
:100140006C001B5B25646D004353534532303130E6
:100150002F373230312050726F6A656374206279B4
:100160002049616E2050696E746F202D2034383024
:10017000303635383100205C2424242424242420E3
:10018000205C24242020205C24242020205C2424A3
:10019000202020202020205C2424202020205C24DB
:1001A00024242424242424205C24242424242424DB
:1001B0002420205C24242424242420205C242420A3
:1001C00020205C2424205C242424242424205C2457
:1001D00024202020202020007C20242420202020D7
:1001E00024247C20242420207C20242420207C20E3
:1001F00024242020202020207C2024242020207C37
:1002000020242420202020205C7C20242420202046
:1002100020205C205C24242020202024247C2024F6
:100220002420207C2024247C2020202424205C7C6A
:10023000202424202020202020007C2024245F5FF4
:100240002F2024247C20242420207C2024242020CF
:100250007C2024242020202020207C2024242020D6
:10026000207C2024245F5F5F5F5F207C2024245F4C
:100270005F5F5F5F207C20205C5F5F7C2024247CAC
:1002800020242420207C202424205F7C2024245F20
:10029000207C202424202020202020007C202424B6
:1002A00024242424245C7C20242424242424242482
:1002B00020207C2024242020202020207C20242476
:1002C0002020207C2024242020202020207C20246A
:1002D00024242424202020205F5C2424242424247B
:1002E0005C7C20242424242424242420207C2024F6
:1002F0002420207C202424242424242420007C2046
:1003000024242020202024247C2024242020202079
:10031000242420207C2024242020202020207C2015
:1003200024242020207C2024242020202020207C05
:1003300020242420205C202020205C242420202035
:10034000205C207C20242420202020242420207CA9
:1003500020242420207C2024242020202024240049
:100360007C2024245F5F2F2024247C2024245F5FB2
:100370007C20242420207C202424202020202020B5
:100380007C2024242020207C2024242020202020A5
:10039000207C2024245F5F202020207C2024245FD8
:1003A0005F5F5C24247C2024245F5F7C2024242045
:1003B000207C20242420207C2024245F5F2F2024E4
:1003C00024007C20242424242424245C7C20202435
:1003D00024242424245C5C24242424242424242071
:1003E0005C24242424242424247C2024242020204D
:1003F0002020207C2024242424242424247C202025
:100400002424242424245C7C20242420207C2024D4
:1004100024205C2424242424247C20242424242414
:1004200024245C007C202020202020205C20202F01
:100430002020202020205C7C202020202020202024
:100440005C7C20202020202020205C7C20205C2040
:1004500020202020207C20202020202020205C2004
:100460002F2020202020205C207C20205C20207C4D
:1004700020205C7C2020202020205C7C202020204C
:100480002020205C2000205F5F5F5F5F5F5F202097
:1004900020205F5F5F5F5F5F20205F5F5F5F5F5F68
:1004A0005F5F20205F5F5F5F5F5F5F5F20205F5F58
:1004B00020202020202020205F5F5F5F5F5F5F5F44
:1004C0002020205F5F5F5F5F5F2020205F5F202034
:1004D00020205F5F20205F5F5F5F5F5F20205F5FA6
:1004E0005F5F5F5F5F2020001B5B25643B256448E6
:1004F000001B5B4B000011241FBECFEFD8E0DEBF16
:10050000CDBF13E0A0E0B1E0E6EDF4E302C005905A
:100510000D92A034B107D9F725E0A0E4B3E001C003
:100520001D92A634B207E1F70E94C70A0C94691A1B
:100530000C94000044EA53E09A0167E080E090E008
:10054000F901E80FF91F7081E72FE77059F4019660
:1005500088309105A9F76150285F3F4F6111EECFB8
:1005600081E0089576FDF3CF64EE73E020E030E0A3
:10057000FB01E20FF31F9081892F877021F0892FF3
:10058000807496FF0EC02F5F3F4F2830310581F7F2
:10059000485F5F4F685F7F4F83E04C3D580731F7FE
:1005A00082E00895382F3770982F9078282F207286
:1005B00080744091A103442341F0332369F08111F9
:1005C0001DC0211115C08CE30895811117C033237C
:1005D00029F091110DC004C0811110C091110AC001
:1005E000222351F080919C03882351F080E10895EB
:1005F0008FE0089580EF089580E0089581E00895E8
:100600000895909125049923E1F0882329F08091A1
:100610008F03811106C0089580916103811104C088
:1006200008958091780302C08091770396E0981B2B
:1006300080917503981708F4892F90919003891B76
:10064000089581E090919003911180E0089561E018
:1006500070E080E090E00E941D080E941408E09184
:100660007603F0E0EE0FFF1FE259FC4F81818F937C
:1006700080818F938CE393E09F938F930E94531A12
:10068000809176030F900F900F900F90823028F496
:10069000809176038F5F8093760308951F93CF93A5
:1006A000DF938830B8F46830A8F4142FC62FD82F01
:1006B00081E00E942E0880E1C89FB001112488E0EB
:1006C0008D0F862B0E942E08812FDF91CF911F91D5
:1006D0000C942E08DF91CF911F9108951F93CF9313
:1006E000DF938091790391E0981B90937903D091E7
:1006F000A3034D2F0D2E000C550BC091A2036C2FA0
:100700000C2E000C770BFA0183E0EE0FFF1F8A9589
:10071000E1F7EC55FC4FE60FF71F8081992331F08C
:1007200085FD02C04FEF21C043E21FC090919C03A2
:100730009923C1F010917403A5E4B3E090E0911700
:1007400089F02D91E22FEF70F0E06E177F0741F4F2
:1007500022952F7030E04217530711F440E105C095
:100760009F5FEDCF0E94D202482F6D2F8C2FDF911B
:10077000CF911F910C944E03CF93DF93D82FC62FA8
:1007800081E0809379030E946E038091A2038D0F14
:10079000883019F41092A20305C08F3F09F487E056
:1007A0008093A2036091A3036C0F683019F4109238
:1007B000A30308C06F3F19F06093A30303C087E051
:1007C0008093A303109279030E946E030E9406088F
:1007D00060939D0370939E0380939F039093A00367
:1007E000DF91CF910895EF92FF920F931F93CF93D4
:1007F000DF9384EAE82E83E0F82ED0E08701C0E0A2
:10080000F8018081982F977039F00E94D202482F0A
:100810006C2F8D2F0E944E03CF5F085F1F4FC83093
:1008200079F7DF5FFFEFEF1AFF0AD83039F781E081
:1008300090917903911180E080937903DF91CF91BA
:100840001F910F91FF90EF900C946E03DF92EF9247
:10085000FF920F931F93CF93DF93E82EF62ED42EA3
:10086000C42FD0E0062F10E08823A9F0FE0133E06A
:10087000EE0FFF1F3A95E1F7EC51FC4FE00FF11F2F
:10088000808185FD65C08062808380918F03815067
:1008900080938F031EC060E070E080E090E00E94D3
:1008A0001D080E94140810927603FE0123E0EE0F4B
:1008B000FF1F2A95E1F7EC55FC4FE00FF11F8081F7
:1008C00085FD46C080628083809161038150809362
:1008D000610380917403E82FF0E0EB5BFC4F9E0115
:1008E00094E0220F331F9A95E1F72F2920838F5F21
:1008F00080937403E1102CC08091A203082E000C99
:10090000990B08171907C1F48091A303082E000C56
:10091000990BC817D90781F481E09091790391115F
:1009200080E080937903DF91CF911F910F91FF9029
:10093000EF90DF900C946E0340E16D2D8F2DDF91D1
:10094000CF911F910F91FF90EF90DF900C944E0389
:10095000DF91CF911F910F91FF90EF90DF9008955D
:100960001F93CF93DF93109193030E94F612612F90
:1009700070E00E94231A9C01ABE8B3E04FE853E01B
:100980009FEF33278D918F3FC1F0C82FCF70D82FA5
:10099000D295DF7088E0D89FF0011124EC51FC4F14
:1009A000EC0FF11D808185FD08C09F5F692F092E26
:1009B000000C770B2617370719F04A175B0711F75A
:1009C0004D2F6C2F81E00E9426048091930381506B
:1009D00080939303DF91CF911F9108951F93CF933D
:1009E000DF938830A8F4683098F4142FC62FD82FDE
:1009F00081E00E942E0820E1C29FC00111248D2BAE
:100A00000E942E08812FDF91CF911F910C942E0808
:100A1000DF91CF911F910895BF92CF92DF92EF9215
:100A2000FF920F931F93CF93DF93E42EF22EC82FE4
:100A3000CF70182F12951F70B62EB2942FE0B222ED
:100A4000062F0F700C17D8F0D12FCC2ED12CBD163D
:100A5000A0F0F60188E0D89FE00DF11D1124EC51C3
:100A6000FC4F8081877011F04CE301C040E06D2F96
:100A70008C2F0E94EE04DF5FEACFCF5FE3CF81E0EF
:100A800080937A03CE2DCF70DE2CD2948FE0D822C3
:100A9000CF2CC2949FE0C9228F2D8F70B82EBC1628
:100AA000E8F0DD2D0C2F10E0CD16B0F0F80188E055
:100AB000D89FE00DF11D1124EC51FC4F808187700F
:100AC00021F010927A034FE001C040EF6D2F8C2F80
:100AD0000E94EE04DF5FE8CFCF5FE1CFE0927D03BD
:100AE000F0927C03DF91CF911F910F91FF90EF90D7
:100AF000DF90CF90BF900895282F962F80917D038F
:100B0000482F4F70420F4830F8F4382F32953F701D
:100B1000360F3830C8F460917C03E62FEF702E0F4B
:100B2000283090F4E62FE295EF709E0F983060F435
:100B300050E1959FF00111242E2B90E1399FF00197
:100B400011244E2B0C940C0508954F925F926F92D6
:100B50007F928F929F92AF92BF92CF92DF92EF924D
:100B6000FF920F931F93CF93DF93E82E10929C0375
:100B7000F12C58E2652E712C6DEEA62E61E0B62E9A
:100B80007EED872E71E0972E80917403F81608F0A1
:100B9000B4C0EF2DF0E0EB5BFC4FD0811D2F1F7038
:100BA000D295DF708D2F90E0212F30E0FC0143E0E3
:100BB000EE0FFF1F4A95E1F7EE2081F0EC51FC4F5C
:100BC000E20FF31FC081C068C0838C2F0E94D20245
:100BD000482F6D2F812F0E94EE0429C0EC55FC4F49
:100BE000E20FF31FC081C068C0834091A203042EAE
:100BF000000C550B2417350791F42091A303022E06
:100C0000000C330B8217930751F481E09091790324
:100C1000911180E0809379030E946E0308C08C2FAD
:100C20000E94D202482F6D2F812F0E944E03C77061
:100C300004EE13E024EAC22E23E0D22EA60198018E
:100C400080E090E0EE2011F0F90101C0FA01E80F18
:100C5000F91F6081762F7770C71302C067FF4BC002
:100C600001968830910571F7285F3F4F485F5F4FCD
:100C7000F4E024323F0721F7D0E0EE2009F455C01C
:100C8000609177036F5F6093770370E06F5F7F4FD2
:100C900080E090E00E941D08FE01EE0FFF1FE05A69
:100CA000FC4F81818F9380818F939F928F920E94BE
:100CB000531A0F900F900F900F90412C6801512CF8
:100CC000F6018081282F277030E0C217D30739F44E
:100CD0008064808341E0642D852D0E94EE0453944E
:100CE000FFEFCF1ADF0A88E05812EACF4394085F7B
:100CF0001F4F4812E3CFF39447CFE1E0EE1205C057
:100D000081E090912504911101C080E080939C03C3
:100D1000109290031092740380917503863008F04E
:100D20004CC08F5F8093750348C0609178036F5FFC
:100D3000609378038E01000F111F005A1C4FF801B9
:100D4000A081B181FD0101900020E9F73197EA1BF4
:100D5000FB0B70E06F5F7F4FC3018E1B9F0B0E94E8
:100D60001D08F80181818F9380818F93BF92AF928C
:100D70000E94531A0F900F900F900F90412C8601F4
:100D8000512CF8018081282F277030E0C217D3073B
:100D900039F48064808341E0642D852D0E944E03E8
:100DA00053940F5F1F4FF8E05F12EBCF439488E03E
:100DB000C80ED11C4F12E3CF9ECFDF91CF911F9170
:100DC0000F91FF90EF90DF90CF90BF90AF909F90EA
:100DD0008F907F906F905F904F9008950F931F9327
:100DE000CF93DF93C82F8B0183E00E942E088C2FB6
:100DF0008F700E942E08E801085F1F4F89910E94A2
:100E00002E08C017D107D1F7DF91CF911F910F9115
:100E100008951F920F920FB60F9211242F933F93B4
:100E20004F935F936F937F938F939F93EF93FF9372
:100E300043B14F7080E090E0642F70E02091600338
:100E4000243004F59B01082E02C0359527950A949D
:100E5000E2F720FF17C02091440330E0082E02C0C3
:100E6000359527950A94E2F720FD0CC0E0916003C8
:100E700021E02E0F209360030E2E000CFF0BE05C90
:100E8000FC4F8083019684309105C1F64093440362
:100E9000FF91EF919F918F917F916F915F914F9112
:100EA0003F912F910F900FBE0F901F90189580913A
:100EB0006003181614F5809140036FB7F89491E021
:100EC000292F30E040916003042E000C550B2417AD
:100ED000350754F4F901E05CFC4F4081F901E15C15
:100EE000FC4F40839F5FECCF9091600391509093B3
:100EF000600367FF03C0789408958FEF0895809191
:100F00002A048823E1F32FB72078F89480912804ED
:100F100030912A0490E0831B9109E091280497FF07
:100F200008C080912A04F0E0E81BF109E05CFA4F68
:100F300007C080912A04F0E0E81BF109E05DFA4F58
:100F4000808190912A04915090932A04222309F0E1
:100F50007894082E000C990B0895CF93C82F8A30EF
:100F600019F48DE00E94AD078FB7807890912B0423
:100F70009F3F29F48111FACF81E090E020C0F894DE
:100F8000E091270491E09E0F90932704F0E0EF5C3E
:100F9000FB4FC08390912B049F5F90932B04909103
:100FA00027049F3F11F4109227049091C100906292
:100FB0009093C100882309F0789480E090E0CF916D
:100FC00008951F920F920FB60F9211248F939F9343
:100FD000AF93BF9380912D0490912E04A0912F0484
:100FE000B09130040196A11DB11D80932D04909302
:100FF0002E04A0932F04B0933004BF91AF919F9122
:101000008F910F900FBE0F901F9018952FB7F894E7
:1010100060912D0470912E0480912F0490913004E2
:1010200027FF01C07894089581EF94E09F938F93F8
:101030000E9444130F900F9008959F938F937F9376
:101040006F9388EE94E09F938F930E9444130F90C8
:101050000F900F900F900F900F9008958EBD0DB4CC
:1010600007FEFDCF8EB508951F920F920FB60F9217
:1010700011242F933F934F935F936F937F938F939D
:101080009F93AF93BF93CF93EF93FF93C091C6000D
:1010900080912C04882349F080912B048F3F29F004
:1010A00060E070E08C2F0E94AD0780912A048031AF
:1010B00020F081E08093290418C0CD3009F4CAE003
:1010C000E091280481E08E0F80932804F0E0E05D39
:1010D000FA4FC08380912A048F5F80932A04809105
:1010E0002804803111F410922804FF91EF91CF91E0
:1010F000BF91AF919F918F917F916F915F914F9130
:101100003F912F910F900FBE0F901F9018951F9237
:101110000F920FB60F9211242F938F939F93EF93FB
:10112000FF9380912B04882319F18091270420914B
:101130002B0490E0821B9109E091270497FF08C0DF
:1011400080912B04F0E0E81BF109E05DFA4F07C045
:1011500080912B04F0E0E81BF109EF5CFB4F9081DC
:1011600080912B04815080932B049093C60005C07E
:101170008091C1008F7D8093C100FF91EF919F917D
:101180008F912F910F900FBE0F901F90189540E0F8
:1011900050E061E070E09B01042E01C0220F0A9430
:1011A000EAF798B1481710F4292B02C0209529239B
:1011B00028B94F5F5F4F4630510569F7089561E1E7
:1011C00070E080E090E00E941D080E941408809169
:1011D0002604811103C08FE093E002C08CEF92E0FF
:1011E0009F938F9385E193E09F938F930E94531A6F
:1011F0000F900F900F900F90089562E170E080E0E3
:1012000090E00E941D080E9414088091250481111D
:1012100003C08CE293E002C089E293E09F938F9336
:1012200080E393E09F938F930E94531A0F900F9047
:101230000F900F9008954F925F926F927F928F92CE
:101240009F92AF92BF92CF92DF92EF92FF920F9355
:101250001F93CF93DF93CDB7DEB728970FB6F894DF
:10126000DEBF0FBECDBF86E391E09F938F930E94B8
:1012700044138BE391E09F938F930E9444131F923A
:1012800085E28F9382E491E09F938F930E944413B1
:1012900064E070E08AE090E00E941D0886E894E037
:1012A0009F938F930E94441365E070E08AE090E082
:1012B0000E941D0884E294E09F938F930E94441340
:1012C00066E070E08AE090E00E941D0882EC93E006
:1012D0009F938F930E94441367E070E08AE090E050
:1012E0000E941D0880E693E09F938F930E94441311
:1012F00068E070E08AE090E00E941D088EEF92E0C6
:101300009F938F930E94441369E070E08AE090E01D
:101310000E941D088CE992E09F938F930E944413D2
:101320006AE070E08AE090E00E941D088AE392E0A3
:101330009F938F930E9444136BE070E08AE090E0EB
:101340000E941D0888ED91E09F938F930E944413A3
:101350006CE070E08AE090E00E941D0886E791E072
:101360009F938F930E9444136EE070E08AE090E0B8
:101370000E941D0888E491E09F938F930E9444137C
:101380008FE00E942E0895EAE92E91E0F92E0FB623
:10139000F894DEBF0FBECDBF10E020EFD22EF701D4
:1013A00021917F01FE01319680E090E00E2FBF2E4B
:1013B00030E0A901082E02C0559547950A94E2F73E
:1013C00040FF02C0D08201C0108201963196883061
:1013D000910579F7602F7B2D812F0E94EE061F5F0C
:1013E0001031E9F60E9406082B013C0110922604F8
:1013F0000E94DF080E94FD0814EFAA24AA9489E342
:10140000882E912C80912A048823B9F08091400580
:10141000909141050E940613F82EF9E78F1719F0F5
:1014200089E5F8120CC081E090912604911180E0CA
:10143000809326040E94DF0802C0FF24FA948F2DB7
:101440008F7D833521F481E08093240404C08134AE
:1014500041F4109224040E940608CB010E94FB1262
:1014600072C08A3549F481E090912504911180E0A1
:10147000809325040E94FD080E9457078F3F09F0C2
:1014800062C00E9406086B017C01DC01CB0184195B
:101490009509A609B709893C9105A105B10508F48C
:1014A000B1CF17FD46C084E00E942E0882E00E9462
:1014B0002E08212F012E000C330BC9010F96B40109
:1014C0000E94231AFC01EB55FE4F40818A9714F4C9
:1014D00060EF01C06FE0E02FFB2D80E090E050E076
:1014E00075EE710FD901A358BE4F9A01082E02C0A4
:1014F000359527950A94E2F720FF02C060830FC05C
:101500007D3060F42C9130E0082E02C0359527958F
:101510000A94E2F720FF02C0A08201C01082019667
:1015200031968830910509F7602F7B2D8FE00E945E
:10153000EE06812F1F5F1A331CF42601370162CF9C
:1015400012EC180FFACF28960FB6F894DEBF0FBE34
:10155000CDBFDF91CF911F910F91FF90EF90DF9062
:10156000CF90BF90AF909F908F907F906F905F9043
:101570004F90089580912A04882339F08091400586
:10158000909141050E94061308958FEF0895CF931F
:10159000DF93CDB7DEB7C05CD1090FB6F894DEBFDC
:1015A0000FBECDBF84B1806B84B92C9A80E58CBD11
:1015B0001DBC8CB581608CBD8CB582608CBD2C98B7
:1015C00080916800826080936800D99A80916C0055
:1015D0008F6080936C001092600310922704109229
:1015E0002B041092280410922A04109229041092BD
:1015F0002C0489E190E09093C5008093C40088E1B9
:101600008093C1008091C10080688093C10080E018
:1016100091E0909343058093420590934105809318
:10162000400510922D0410922E0410922F04109257
:10163000300416BC8CE787BD92E094BD83E085BD85
:1016400080916E00826080936E0095BB1092850041
:10165000109284001092B20078948FE187B980E4F0
:1016600080937C0086E880937A00109225040E9483
:10167000FD080E941B099E012F5F3F4F790186E301
:1016800091E09F938F930E9444130E94DF080E9471
:10169000FD0863E170E080E090E00E941D080E9478
:1016A000140882E092E09F938F930E94531A0F9048
:1016B0000F900F900F9080912404882319F08FE0F1
:1016C00092E002C085E392E09F938F930E94531AA9
:1016D0000F900F908FE00E942E08809124048111BA
:1016E00037C080E4E2E1F1E0DE01A758BF4F01908E
:1016F0000D928A95E1F780E4E2E5F1E0D7010190EF
:101700000D928A95E1F740E050E020E030E0C90119
:10171000840F951FFC01EC51FC4FA9E7B0E0AC0F22
:10172000BD1FA80FB91F6C916083FC01EC55FC4FE5
:10173000D701A80FB91F8C918083285F3F4F2034B9
:10174000310529F74F5F5F4F48305105F1F6C3C0AF
:1017500024EE33E098E0F90188E010828150389659
:101760008111FBCF91502F5F3F4F9111F4CF24EAAD
:1017700033E098E0F90188E01082815038968111B9
:10178000FBCF91502F5F3F4F9111F4CF62E9C62EEE
:1017900061E0D62EBB24B394D6011D916D0111508A
:1017A00000E090E0911104C0B12FA12C912C04C055
:1017B000B0E0A12E58E0952E80E05B2E580E4A2D09
:1017C00020E030E0882E8928622EE7E0E51520F140
:1017D000483010F5582F551698F0762C652F70E08C
:1017E000471508F454C6FB01A8E07A9EE00DF11DF0
:1017F0001124EC55FC4FE081E1110EC07394F0CF41
:10180000F701E00FF11DB90154E0660F771F5A95FB
:10181000E1F7682960830F5F2F5F3F4F4F5F2830EC
:10182000310591F68F5F883041F69F5F923009F065
:10183000B9CF0E94F612602F70E00E94231AF701C0
:10184000E80FF11D8081082F0770782F72957F7047
:10185000982F987083FF02C030E001C0312F300F05
:10186000911101C010E0170F992311F090E001C011
:1018700090E1802F6B2D692B381748F1972FE82FB7
:10188000F0E0191710F1081302C0791731F038137E
:1018900006C021E0191303C003C021E001C020E00D
:1018A000492F50E0222311F028E001C020E0DA01A6
:1018B00043E0AA0FBB1F4A95E1F7AC55BC4FAE0FF2
:1018C000BF1F262B2C939F5FDCCF8F5FD5CFB394A8
:1018D000B7E0BB1261CF83E08093A2038093A303A0
:1018E00011E01093790387E08093920310929103A3
:1018F00010927803109277031092760310927E0371
:101900001092A1031093750310929C031092900300
:101910001092740384E592E090936F0380936E03BA
:101920008DE692E0909371038093700386E892E0D5
:1019300090937303809372038FE992E09093630313
:101940008093620387EA92E0909365038093640337
:101950008FEA92E0909367038093660389EB92E0AD
:10196000909369038093680381EC92E090936B03FA
:1019700080936A038AEC92E090936D0380936C03EA
:1019800080E480938F0310929303809361030E94FD
:1019900057071092280410922A040E9406086093A8
:1019A0009D0370939E0380939F039093A00380E018
:1019B0000E94C70880912404882309F4F8C010937A
:1019C0007B0310927D0380E580937C0310937A0360
:1019D00024EE33E098E0F90188E0108281503896D7
:1019E0008111FBCF91502F5F3F4F9111F4CF20E534
:1019F00040E060E580E00E940C058091240488238B
:101A000009F4D5C00E945707182F0E94BA0A8F3FC9
:101A100031F0082E000C990B0E944B1A01C08FEF79
:101A20009091250490939C03112311F0843619F4AE
:101A300060E081E006C0113011F0833729F46FEFC8
:101A400080E00E947C05D9CF123011F0873711F465
:101A500061E0F6CF133011F0813619F460E08FEFBA
:101A6000F0CF863609F06BC090917D03992E929449
:101A70001FE0912280917C03882E82940FE08022C7
:101A800020917A03222309F4B8CF9F70B92E9810C1
:101A900003C0B0E17B2E01C0712C1B2D8F70A82ECE
:101AA000A11680F1092DC12ED12C801648F1B1125A
:101AB00002C0901631F01A1106C081E0801203C0F6
:101AC00003C081E001C080E0E02FF0E0882311F046
:101AD00088E001C080E0A3E0EE0FFF1FAA95E1F7C8
:101AE000EC51FC4FEC0DFD1D90917B039729892B48
:101AF00080834CE3602F812F0E94EE040F5FD5CFCF
:101B00001F5FCECFE0917B03E63019F410922404DE
:101B100074CFEF5FE0937B0310927D03F0E0EF560C
:101B2000FE4F60816150E0E16E9FB001112460932F
:101B30007C0381E080937A03262F40E05BCF8237DD
:101B400009F05BCF80917D03982F92959F706091F3
:101B50007C03E0917B03F0E0EF56FE4F20812150A3
:101B6000362F32953F70482F4F70931313C0290FB3
:101B7000283028F0E7E0E90F9E2F921B27E0F0E1E4
:101B80002F9F90011124242B30E1939FD001112429
:101B90004A2B31CF240F283018F0495F421B27E031
:101BA00050E1959FF00111242E2B4E2B24CFF4EE03
:101BB000AF2EF3E0BF2E00E0650110E0D6018C915E
:101BC000877029F04CE3612F802F0E94EE041F5F85
:101BD000B8E0CB0ED11C183089F70F5FEFEFAE1ACB
:101BE000BE0A083049F70E949A02082F0E94060890
:101BF000C754DF4F688379838A839B83C95BD04056
:101C00000E940608609398037093990380939A0347
:101C100090939B038FEF90E0A0E0B0E0809394035B
:101C200090939503A0939603B09397031092830328
:101C300010928403109285031092860310927F0302
:101C4000109280031092810310928203C354DF4FDD
:101C5000188219821A821B82CD5BD040D12CCC24F1
:101C6000CA9433243394011157C20E945707082F96
:101C70000E94BA0A8F3F39F0082E000C990B0E947F
:101C80004B1A182F01C01FEF8091250480939C03ED
:101C9000D11039C4882329F080E00E9401030E94FA
:101CA000C708002311F0143619F460E081E013C076
:101CB000013011F0133711F46FEF05C0023011F04D
:101CC000173719F461E080E006C0033011F01136D7
:101CD00029F460E08FEF0E94BC03C9C01636E9F416
:101CE0004091A3036091A20328E04202F001112475
:101CF000EC55FC4FE60FF11D67FDFA95808185FFDD
:101D000003C00E942703B3C080E00E942604809194
:101D100090038F5F8093900398C01236D9F580911D
:101D20007E0380FDEECF4091A3036091A20380E08B
:101D30000E94260400E08FEF800F61E0833030F0D6
:101D40008BEF800F833008F060E0619541E0023056
:101D500040F0073031F08DEF800F833008F040E025
:101D600041958091A203680F683040F48091A303ED
:101D7000480F483018F480E00E9426040F5F0830B6
:101D8000D1F6809190038F5F8093900380917E03C2
:101D9000816059C01E3659F580917E0381FDB1CF17
:101DA0004091A3036091A20380E00E942604A12C2D
:101DB000B12C8091A203082E000C990BA816B9062D
:101DC00031F04091A3036A2D80E00E9426043FEF8A
:101DD000A31AB30A48E0A416B10459F780919003FE
:101DE0008F5F8093900380917E0382602CC01D36AC
:101DF00071F580917E0382FD84CF4091A3036091B1
:101E0000A20380E00E942604A12CB12C8091A303A0
:101E1000082E000C990BA816B90631F04A2D6091D6
:101E2000A20380E00E9426045FEFA51AB50A88E0AD
:101E3000A816B10459F7809190038F5F80939003A7
:101E400080917E03846080937E0301E011C013368D
:101E500071F43092A1030E940608C754DF4F6883D3
:101E600079838A839B83C95BD0400E94F30300E09F
:101E70000E9406084B015C0180919D0390919E0396
:101E8000A0919F03B091A00388539F4FAF4FBF4FC6
:101E900088169906AA06BB0650F00E946E0380922F
:101EA0009D0390929E03A0929F03B092A003C754FB
:101EB000DF4F88819981AA81BB81C95BD04088515D
:101EC0009C4FAF4FBF4F88169906AA06BB0640F03D
:101ED0008091A103882321F01092A1030E94F303B3
:101EE000409198035091990360919A0370919B03DC
:101EF0008091940390919503A0919603B0919703DC
:101F0000840F951FA61FB71F88169906AA06BB0641
:101F100008F4F4C080917C00816080937C00809103
:101F20007A00806480937A0080917A0086FDFCCFED
:101F30008091780090917900A0E0B0E080938703D1
:101F400090938803A0938903B0938A0380917C00C7
:101F50008E7F80937C0080917A00806480937A00E9
:101F600080917A0086FDFCCF809178009091790075
:101F7000A0E0B0E08436E2E09E07A105B1052CF0B8
:101F800083569240A109B1090AC08B39F1E09F073D
:101F9000A105B1056CF48B599140A109B109809359
:101FA000830390938403A0938503B093860308C0B2
:101FB000109283031092840310928503109286037B
:101FC0008091870390918803A0918903B0918A033F
:101FD000843622E09207A105B1052CF08356924089
:101FE000A109B1090AC08B3931E09307A105B105F8
:101FF0006CF48B599140A109B10980937F039093B0
:102000008003A0938103B093820308C010927F03E2
:1020100010928003109281031092820380908303B8
:1020200090908403A0908503B090860381E01814FB
:1020300019041A041B043CF081149104A104B10496
:1020400009F480E0819540907F0350908003609078
:1020500081037090820314141504160417040CF401
:1020600018C2411451046104710409F014C2882398
:1020700019F060E00E94BC03C501B4010E9433174F
:102080004B015C01C301B2010E9433172B013C01DB
:10209000A5019401C501B4010E94BF174B015C0169
:1020A000A3019201C301B2010E94BF179B01AC01C1
:1020B000C501B4010E94961620E030E040E05FE3E5
:1020C0000E942C189B01AC0160E070E086E194E472
:1020D0000E9495160E9402176093940370939503D3
:1020E00080939603909397030E9406086093980349
:1020F0007093990380939A0390939B03002309F4B0
:10210000CEC080E00E9401038111C9C00E94A505D4
:102110000E949A02882389F11092A1036EE070E078
:102120008AE090E00E941D088CE291E09F938F93DB
:102130000E9444136FE070E08AE090E00E941D0866
:102140008EEF90E09F938F930E9444130E949A0217
:102150000F900F900F900F90813009F01DC186E015
:10216000D7011D928A95E9F724EA33E0ACEAB3E09F
:1021700064EE73E040E050E0C1C081E00E940103E2
:102180000E94C708E7E09E2E81E00E940103882399
:1021900009F482C080912604882309F455C08091F7
:1021A0009303882319F00E94B0046BC024EE33E03F
:1021B00000E03901B12CD3018C91982F9770E1F197
:1021C00087FF3AC0EBE8F3E0A12C70E061E07130EA
:1021D00031F0733009F060E06195772331F081E0F0
:1021E000723009F080E0819501C081E0600F6830B5
:1021F000C8F48B0D8F3FB1F08830A1F0B8E08B02AE
:10220000A00111244C515C4F460F511DDA019C91E5
:1022100095FD08C0A394B0E18B9FC0011124862BCB
:10222000808301C0C0827F5F3196743079F6AA2026
:1022300019F0A0929303B7CFB394E8E06E0E711C2F
:10224000F8E0BF12B8CF29C1409192036091910389
:1022500081E00E942604809191038F5F8093910317
:1022600080919103883039F4109291038091920308
:10227000815080939203809192038F3F11F490924A
:102280009203809190038F5F8093900381E00E947E
:1022900001030E94C70878CF81E00E94A5050E9433
:1022A0009A02082F103709F0DECC6BE070E080E076
:1022B00090E00E941D0884ED92E09F938F930E940E
:1022C000531A0E94060880909D0390909E03A09050
:1022D0009F03B090A0039B01AC01281939094A095A
:1022E0005B09C354DF4F288339834A835B83CD5B0B
:1022F000D0400F900F90DD24D394B5CC80E090E0D7
:10230000FB01E80FF91FF081EF2FE77049F0F5FDB1
:1023100007C0F0E03197EE0DFF1D10811F5F1083A5
:10232000F901E80FF91FE081E5FD02C04F5F5F4F43
:1023300008968034910521F72F5F3F4F6F5F7F4FE5
:10234000A217B307D9F6F701BE01695F7F4F80E09E
:1023500090E02191229F800D911D11246E177F071F
:10236000C1F7849F8001859F100D949F100D11244B
:1023700060E170E080E090E00E941D080E94140877
:102380001F930F9381EE92E09F938F930E94531AB5
:102390000F900F900F900F900E949A02182F69E0F3
:1023A00070E080E090E00E941D08113019F48CEF7D
:1023B00091E002C08BE492E09F938F9380EF92E0D4
:1023C0009F938F930E94531A0F900F900F900F902E
:1023D000C12C64EA862E63E0962E74EEA72E73E07D
:1023E000B72ED12C00E010E0802FCC2011F0F501A9
:1023F00001C0F401E00FF11F908195FD0DC09770B1
:1024000011F044E101C040E16D2DCC2019F00E9493
:10241000EE0402C00E944E030F5F1F4F08301105EB
:1024200019F7D394B8E0AB0EB11CE8E08E0E911C06
:10243000F8E0DF12D7CFC39422E0C212CACF0091D6
:10244000A3031091A20338E00302F0011124EC551C
:10245000FC4FE10FF11D17FDFA9580810E94D20219
:10246000482F602F812F0E944E030E9457078F3FF5
:1024700019F00E941B0903C90E94BA0A082E000C19
:10248000990B0E944B1A8337910579F7F2CF5F5F62
:10249000A2C961E0EFCD6FEFEDCD0F5F2F5F3F4F32
:1024A000083009F086CE1092930300918F030E94AA
:1024B000F612602F70E00E94231A24EE33E05FEFE3
:1024C00060E09927F90140E0708175FD08C05F5F09
:1024D000A52F052E000CBB0BA817B90721F04F5FE5
:1024E0003896483089F7E52F052E000CFF0BE817CA
:1024F000F90729F06F5F2F5F3F4F683019F781E0D0
:102500000E942604BECE103711F56BE070E080E02B
:1025100090E00E941D080E9414080E940608DC0139
:10252000CB01C354DF4F288139814A815B81CD5B68
:10253000D040821B930BA40BB50B80939D0390930B
:102540009E03A0939F03B093A003D12C8ECBDD24D8
:10255000D3948BCB8F929F92AF92BF92CF92DF9208
:10256000EF92FF92CF93DF93EC01688179818A81AA
:102570009B81611571058105910521F464E279ED76
:102580008BE597E02DE133EF41E050E00E94FB1531
:1025900049015A019B01AC01A7EAB1E40E941A1655
:1025A0006B017C01ACEEB4EFA50194010E942816EA
:1025B000DC01CB018C0D9D1DAE1DBF1DB7FF03C0FF
:1025C0000197A109B04888839983AA83BB839F7729
:1025D000DF91CF91FF90EF90DF90CF90BF90AF90C1
:1025E0009F908F9008950E94AA1208958EE091E026
:1025F0000E94AA120895A0E0B0E080930E0190938B
:102600000F01A0931001B09311010895CF93DF93B0
:10261000EC012B8120FF33C026FF0AC02F7B2B83C8
:102620008E819F8101969F838E838A8190E029C04D
:1026300022FF0FC0E881F9818081082E000C990BE0
:10264000009719F420622B831AC03196F983E8832E
:102650000EC0EA85FB85099597FF09C02B8101967D
:1026600011F080E201C080E1822B8B8308C02E81B3
:102670003F812F5F3F4F3F832E83992702C08FEF0B
:102680009FEFDF91CF910895A0E0B0E0EAE4F3E19D
:102690000C943B16AE01495F5F4FDA016D917D915D
:1026A000AD0100E415E0F80182819381DC0113960D
:1026B0002C911397286013962C930E946A13D801CB
:1026C0001296ED91FC9113972381277F2383E4E0F9
:1026D0000C945716ABE0B0E0E0E7F3E10C942D1654
:1026E0006C017B018A01FC0117821682838181FFC4
:1026F000CCC1CE0101963C01F6019381F70193FD17
:10270000859193FF81917F01882309F4BAC18532B5
:1027100039F493FD859193FF81917F01853229F4EE
:10272000B60190E00E946115E7CF912C212C312C4D
:10273000FFE1F315D8F08B3279F038F4803279F07C
:102740008332A1F4232D20611DC08D3261F08033CE
:1027500069F4232D216016C0832D8260382EE32D6D
:10276000E4603E2E2AC0F32DF8601DC037FC2DC05A
:1027700020ED280F2A3040F08E32B9F436FC81C1AA
:10278000232D2064322E19C036FE06C08AE0989EA2
:10279000200D1124922E11C0EAE02E9E200D11244E
:1027A000222EF32DF0623F2E08C08C3621F4832DAB
:1027B0008068382E02C0883641F4F70193FD859178
:1027C00093FF81917F018111B3CF982F9F7D955405
:1027D000933028F40C5F1F4F9FE399830DC083361D
:1027E00031F0833771F0833509F059C021C0F80109
:1027F000808189830E5F1F4F88248394912C53011D
:1028000013C02801F2E04F0E511CF801A080B180E6
:1028100036FE03C0692D70E002C06FEF7FEFC50187
:102820000E9456154C018201F32DFF773F2E16C0F2
:10283000280122E0420E511CF801A080B18036FE32
:1028400003C0692D70E002C06FEF7FEFC5010E94E9
:102850004B154C01F32DF0683F2E820133FC1BC059
:10286000822D90E088169906B0F4B60180E290E0DF
:102870000E9461152A94F4CFF50137FC859137FE4B
:1028800081915F01B60190E00E94611521102A94A8
:1028900021E0821A91088114910471F7E8C084360E
:1028A00011F0893641F5F80137FE07C0608171816A
:1028B000828193810C5F1F4F08C060817181072E58
:1028C000000C880B990B0E5F1F4FF32DFF763F2EE8
:1028D00097FF09C090958095709561957F4F8F4FB8
:1028E0009F4FF0683F2E2AE030E0A3010E949D1523
:1028F000882E861845C0853731F4232D2F7EB22EC1
:102900002AE030E025C0932D997FB92E8F36C1F093
:1029100018F4883579F0B5C0803719F0883721F080
:10292000B0C0E92FE061BE2EB4FE0DC0FB2DF460F7
:10293000BF2E09C034FE0AC0292F2660B22E06C061
:1029400028E030E005C020E130E002C020E132E0C4
:10295000F801B7FE07C060817181828193810C5FAD
:102960001F4F06C06081718180E090E00E5F1F4FB5
:10297000A3010E949D15882E8618FB2DFF773F2E00
:1029800036FE0DC0232D2E7FA22E891458F434FE5E
:102990000BC032FC09C0832D8E7EA82E05C0B82C3A
:1029A000A32C03C0B82C01C0B92CA4FE0FC0FE019B
:1029B000E80DF11D8081803321F49A2D997EA92E96
:1029C00009C0A2FE06C0B394B39404C08A2D8678D1
:1029D00009F0B394A3FC11C0A0FE06C0B21488F4A1
:1029E000280C922C9B180EC0B21460F4B60180E241
:1029F00090E00E946115B394F7CFB21418F42B182D
:102A000002C0982C212CA4FE10C0B60180E390E0F7
:102A10000E946115A2FE17C0A1FC03C088E790E0E8
:102A200002C088E590E0B6010CC08A2D867859F086
:102A3000A1FE02C08BE201C080E2A7FC8DE2B601DC
:102A400090E00E946115891438F4B60180E390E0AB
:102A50000E9461159A94F7CF8A94F301E80DF11D55
:102A60008081B60190E00E9461158110F5CF22208F
:102A700009F442CEB60180E290E00E9461152A94EA
:102A8000F6CFF6018681978102C08FEF9FEF2B96DC
:102A9000E2E10C944916FC01059061507040011070
:102AA000D8F7809590958E0F9F1F0895FC01615077
:102AB000704001900110D8F7809590958E0F9F1F60
:102AC00008950F931F93CF93DF93FB01238121FD83
:102AD00003C08FEF9FEF2CC022FF16C046815781A5
:102AE000248135814217530744F4A081B1819D01AF
:102AF0002F5F3F4F318320838C93268137812F5F57
:102B00003F4F3783268314C08B01EC01FB01008407
:102B1000F185E02D0995892BE1F6D80116968D9166
:102B20009C911797019617969C938E931697CE01BA
:102B3000DF91CF911F910F910895FA01AA272830B4
:102B400051F1203181F1E8946F936E7F6E5F7F4F7A
:102B50008F4F9F4FAF4FB1E03ED0B4E03CD0670FF6
:102B6000781F891F9A1FA11D680F791F8A1F911D49
:102B7000A11D6A0F711D811D911DA11D20D009F499
:102B800068943F912AE0269F11243019305D3193DB
:102B9000DEF6CF010895462F4770405D4193B3E0C4
:102BA0000FD0C9F7F6CF462F4F70405D4A3318F06B
:102BB000495D31FD4052419302D0A9F7EACFB4E01C
:102BC000A6959795879577956795BA95C9F70097D4
:102BD0006105710508959B01AC010A2E0694579575
:102BE000479537952795BA95C9F7620F731F841FCC
:102BF000951FA01D0895052E97FB1EF400940E94BA
:102C0000121657FD07D00E94641607FC03D04EF43D
:102C10000C94121650954095309521953F4F4F4F8B
:102C20005F4F089590958095709561957F4F8F4F78
:102C30009F4F08950E948616A59F900DB49F900DFA
:102C4000A49F800D911D11240895B7FF0C941A16AE
:102C50000E941A16821B930B08952F923F924F9257
:102C60005F926F927F928F929F92AF92BF92CF921C
:102C7000DF92EF92FF920F931F93CF93DF93CDB725
:102C8000DEB7CA1BDB0B0FB6F894DEBF0FBECDBF9D
:102C900009942A88398848885F846E847D848C846E
:102CA0009B84AA84B984C884DF80EE80FD800C8177
:102CB0001B81AA81B981CE0FD11D0FB6F894DEBF5A
:102CC0000FBECDBFED010895A1E21A2EAA1BBB1BBA
:102CD000FD010DC0AA1FBB1FEE1FFF1FA217B307E8
:102CE000E407F50720F0A21BB30BE40BF50B661FFE
:102CF000771F881F991F1A9469F7609570958095C2
:102D000090959B01AC01BD01CF010895A29FB00138
:102D1000B39FC001A39F700D811D1124911DB29F0F
:102D2000700D811D1124911D08955058BB27AA27AD
:102D30000E94AD160C9485170E94771738F00E94F8
:102D40007E1720F039F49F3F19F426F40C94741781
:102D50000EF4E095E7FB0C946E17E92F0E9496178E
:102D600058F3BA17620773078407950720F079F4C0
:102D7000A6F50C94B8170EF4E0950B2EBA2FA02DE3
:102D80000B01B90190010C01CA01A0011124FF2718
:102D9000591B99F0593F50F4503E68F11A16F04013
:102DA000A22F232F342F4427585FF3CF4695379512
:102DB0002795A795F0405395C9F77EF41F16BA0BD7
:102DC000620B730B840BBAF09150A1F0FF0FBB1F85
:102DD000661F771F881FC2F70EC0BA0F621F731FCE
:102DE000841F48F4879577956795B795F7959E3F2B
:102DF00008F0B0CF9395880F08F09927EE0F9795BC
:102E0000879508950E949E1788F09F5798F0B92FD4
:102E10009927B751B0F0E1F0660F771F881F991F0F
:102E20001AF0BA95C9F714C0B13091F00E94B817E2
:102E3000B1E008950C94B817672F782F8827B85FF2
:102E400039F0B93FCCF3869577956795B395D9F767
:102E50003EF490958095709561957F4F8F4F9F4F71
:102E60000895E89409C097FB3EF49095809570957D
:102E700061957F4F8F4F9F4F9923A9F0F92F96E9C6
:102E8000BB279395F695879577956795B795F1113B
:102E9000F8CFFAF4BB0F11F460FF1BC06F5F7F4FD8
:102EA0008F4F9F4F16C0882311F096E911C07723EA
:102EB00021F09EE8872F762F05C0662371F096E8F3
:102EC000862F70E060E02AF09A95660F771F881FC2
:102ED000DAF7880F9695879597F9089597F99F6780
:102EE00080E870E060E008959FEF80EC0895002492
:102EF0000A941616170618060906089500240A945F
:102F000012161306140605060895092E0394000CE4
:102F100011F4882352F0BB0F40F4BF2B11F460FF73
:102F200004C06F5F7F4F8F4F9F4F089557FD90589C
:102F3000440F551F59F05F3F71F04795880F97FB7D
:102F4000991F61F09F3F79F0879508951216130637
:102F50001406551FF2CF4695F1DF08C01616170666
:102F60001806991FF1CF869571056105089408959B
:102F7000E894BB2766277727CB0197F908950E942D
:102F8000D2170C9485170E94771738F00E947E178D
:102F900020F0952311F00C946E170C9474171124E3
:102FA0000C94B9170E94961770F3959FC1F3950F73
:102FB00050E0551F629FF001729FBB27F00DB11DBD
:102FC000639FAA27F00DB11DAA1F649F6627B00D4D
:102FD000A11D661F829F2227B00DA11D621F739F36
:102FE000B00DA11D621F839FA00D611D221F749F44
:102FF0003327A00D611D231F849F600D211D822F8B
:10300000762F6A2F11249F5750409AF0F1F08823B1
:103010004AF0EE0FFF1FBB1F661F771F881F9150DE
:103020005040A9F79E3F510580F00C946E170C9408
:10303000B9175F3FE4F3983ED4F38695779567958B
:10304000B795F795E7959F5FC1F7FE2B880F911D08
:103050009695879597F90895FA01EE0FFF1F309620
:1030600021053105A1F16115710561F48038BFE3D7
:103070009B0749F168949038810561F08038BFEF73
:103080009B0741F099234AF5FF3FE10531052105F2
:1030900019F1E8940894E795D901AA2329F4AB2FF4
:1030A000BE2FF85FD0F310C0FF5F70F4A695E0F775
:1030B000F73950F019F0FF3A38F49F779F930DD00D
:1030C0000F9007FC9058089546F00C94741760E038
:1030D00070E080E89FE308954FE79F775F934F93F9
:1030E0003F932F930E9427192F913F914F915F910A
:1030F0000E94BF170C94841829F416F00C946E17D4
:103100000C94B8170C9474170E949E17A8F3963865
:10311000A0F707F80F92E8942BE33AEA48EB5FE751
:103120000E94D5170F920F920F924DB75EB70F9274
:103130000E946F19ECE7F0E00E94B6184F915F9182
:10314000EF91FF91E595EE1FFF1F49F0FE57E068F4
:103150004427EE0F441FFA95E1F74195550B0E9465
:10316000E9180F9007FE0C94DD180895DF93CF93B4
:103170001F930F93FF92EF92DF927B018C01689473
:1031800006C0DA2EEF010E94D217FE01E894A59145
:103190002591359145915591A6F3EF010E94AD1609
:1031A000FE019701A801DA9469F7DF90EF90FF9094
:1031B0000F911F91CF91DF9108959B01AC0160E0C9
:1031C00070E080E89FE30C94A3190C946E170C94A4
:1031D000151A0E949E17D8F39923C9F3940F511D15
:1031E000A3F39150504094F059F0882332F0660FC9
:1031F000771F881F91505040C1F79E3F51052CF713
:10320000880F911D9695879597F908955F3FACF0CB
:10321000983E9CF0BB27869577956795B79508F4FF
:10322000B1609395C1F7BB0F58F711F460FFE8CF79
:103230006F5F7F4F8F4F9F4FE3CF0C94B91716F0FE
:103240000C94151A0C94741768940C946E170E94C1
:103250009E17A8F39923C1F3AEF3DF93CF931F9387
:103260000F93FF92C92FDD2788232AF02197660F3D
:10327000771F881FDAF720E030E040E85FEB9FE33C
:10328000883920F0803E38F021968F770E9496167C
:10329000E4EAF0E004C00E949616E1EDF0E00E943E
:1032A000B6188B01BE01EC01FB2E6F5771097595A5
:1032B000771F880B990B0E94331728E132E741E30F
:1032C0005FE30E94D217AF2D9801AE01FF900F91DE
:1032D0001F91CF91DF910E94AD160C948517FA01D2
:1032E000DC01AA0FBB1F9B01AC01BF5728F42227AA
:1032F00033274427507820C0B75190F4AB2F0024D7
:10330000469537952795011CA395D2F3002071F0BF
:10331000220F331F441FB395DAF30ED00C94951689
:1033200061307105A0E88A07B94630F49B01AC0111
:103330006627772788279078309621F0208331837D
:103340004283538308950E94B7190C9485170E94F5
:103350007E1758F00E94771740F029F45F3F29F05C
:103360000C946E1751110C94B9170C9474170E9499
:10337000961768F39923B1F3552391F3951B550BD9
:10338000BB27AA2762177307840738F09F5F5F4F38
:10339000220F331F441FAA1FA9F335D00E2E3AF077
:1033A000E0E832D091505040E695001CCAF72BD08F
:1033B000FE2F29D0660F771F881FBB1F26173707E0
:1033C0004807AB07B0E809F0BB0B802DBF01FF2712
:1033D00093585F4F3AF09E3F510578F00C946E176A
:1033E0000C94B9175F3FE4F3983ED4F38695779534
:1033F0006795B795F7959F5FC9F7880F911D9695CB
:10340000879597F90895E1E0660F771F881FBB1F26
:10341000621773078407BA0720F0621B730B840BD3
:10342000BA0BEE1F88F7E09508959F3F31F0915059
:1034300020F4879577956795B795880F911D969598
:10344000879597F9089597FB072E16F4009407D0F7
:1034500077FD09D00E94371A07FC05D03EF49095FD
:1034600081959F4F0895709561957F4F0895AA1B90
:10347000BB1B51E107C0AA1FBB1FA617B70710F05F
:10348000A61BB70B881F991F5A95A9F78095909591
:10349000BC01CD0108959111089581548A5108F419
:1034A000805E855A0895A0E0B0E0E9E5FAE10C9469
:1034B0003D16AE014B5F5F4FFA0161917191AF0113
:1034C00080914205909143050E946A13E2E00C94BA
:0634D0005916F894FFCF2D
:1034D6000000000300000000AD077F0700000100A8
:1034E6000000000000000000000000191111111179
:1034F6001900000000000000000000000D00000E92
:1035060000000B000D00000E000C03000000000080
:1035160000040B001A12121A000C00000000000032
:10352600000000000000000000000B001A12121A32
:10353600000C03000000000000040B000D00000E4C
:10354600000C00000D00000E00000000000000004E
:1035560000000019111111111900000000000000EF
:103566000000060403030202000016060206060611
:103576003636063600FE92926C000C52523C022001
:103586007E20207E2000FE003C52523400122A2A61
:103596002400FE20201E005E003F24241800001098
:1035A6001E2B390D3929394949F94B3E000049206E
:1035B60053756E6B20596F757220257300596F75A0
:1035C6002053756E6B204D792025730068756D61EB
:1035D6006E00536869702073657475703A20006DCB
:1035E600616E75616C20666F722068756D616E2CF8
:1035F6002072616E646F6D20666F7220636F6D70EE
:10360600757465720064656661756C7420666F72A8
:103616002068756D616E20616E6420636F6D7075D4
:1036260074657200496E76616C6964206D6F7665AB
:103636002C2074727920616761696E2E00496E765E
:10364600616C6964206D6F76652E20545259204155
:103656004741494E2E00494E56414C4944204D4F54
:1036660056452047525252525252525252520043DB
:10367600617272696572004372756973657200449E
:10368600657374726F7965720046726967617465F5
:1036960000436F727665747465005375626D61726E
:1036A600696E650047616D65207061757365642E8E
:1036B60000596F75722073636F72653A2025690031
:1036C60054686520257320776F6E2E0073656172CE
:1036D600636820616E642064657374726F7900623A
:1036E6006173696300436F6D7075746572206D6FE9
:1036F6006465206973202573006F6E006F6666002F
:1037060053616C766F206D6F64653A2025730000F7
:00000001FF
